{
  "address": "0x8576dCD00ED35373924C602605cBCEbd8cE48333",
  "abi": [
    {
      "inputs": [
        {
          "internalType": "address",
          "name": "priceFeedAddress",
          "type": "address"
        }
      ],
      "stateMutability": "nonpayable",
      "type": "constructor"
    },
    {
      "inputs": [],
      "name": "TransactionFailed",
      "type": "error"
    },
    {
      "inputs": [],
      "name": "Unauthorized",
      "type": "error"
    },
    {
      "stateMutability": "payable",
      "type": "fallback"
    },
    {
      "inputs": [
        {
          "internalType": "address",
          "name": "",
          "type": "address"
        }
      ],
      "name": "addressToAmount",
      "outputs": [
        {
          "internalType": "uint256",
          "name": "",
          "type": "uint256"
        }
      ],
      "stateMutability": "view",
      "type": "function"
    },
    {
      "inputs": [],
      "name": "fund",
      "outputs": [],
      "stateMutability": "payable",
      "type": "function"
    },
    {
      "inputs": [
        {
          "internalType": "uint256",
          "name": "",
          "type": "uint256"
        }
      ],
      "name": "funders",
      "outputs": [
        {
          "internalType": "address",
          "name": "",
          "type": "address"
        }
      ],
      "stateMutability": "view",
      "type": "function"
    },
    {
      "inputs": [],
      "name": "minUSD",
      "outputs": [
        {
          "internalType": "uint256",
          "name": "",
          "type": "uint256"
        }
      ],
      "stateMutability": "view",
      "type": "function"
    },
    {
      "inputs": [],
      "name": "owner",
      "outputs": [
        {
          "internalType": "address",
          "name": "",
          "type": "address"
        }
      ],
      "stateMutability": "view",
      "type": "function"
    },
    {
      "inputs": [],
      "name": "priceFeed",
      "outputs": [
        {
          "internalType": "contract AggregatorV3Interface",
          "name": "",
          "type": "address"
        }
      ],
      "stateMutability": "view",
      "type": "function"
    },
    {
      "inputs": [],
      "name": "withdraw",
      "outputs": [],
      "stateMutability": "nonpayable",
      "type": "function"
    },
    {
      "stateMutability": "payable",
      "type": "receive"
    }
  ],
  "transactionHash": "0x352a22ca52c7ef462c96f48f933df748e1a24012e6db97d5624624ac633f42ee",
  "args": [
    "0x694AA1769357215DE4FAC081bf1f309aDC325306"
  ],
  "numDeployments": 1,
  "solcInputHash": "1f161411b640af6bd4294e186a2f893d",
  "bytecode": "0x60a060405234801561001057600080fd5b50604051610e82380380610e8283398181016040528101906100329190610113565b3373ffffffffffffffffffffffffffffffffffffffff1660808173ffffffffffffffffffffffffffffffffffffffff1660601b8152505080600260006101000a81548173ffffffffffffffffffffffffffffffffffffffff021916908373ffffffffffffffffffffffffffffffffffffffff16021790555050610140565b600080fd5b600073ffffffffffffffffffffffffffffffffffffffff82169050919050565b60006100e0826100b5565b9050919050565b6100f0816100d5565b81146100fb57600080fd5b50565b60008151905061010d816100e7565b92915050565b600060208284031215610129576101286100b0565b5b6000610137848285016100fe565b91505092915050565b60805160601c610d1d610165600039600081816102e301526105400152610d1d6000f3fe6080604052600436106100745760003560e01c80638da5cb5b1161004e5780638da5cb5b1461010c578063b60d428814610137578063dc0d3dff14610141578063dc992aa01461017e57610083565b80633c7e7d281461008d5780633ccfd60b146100ca578063741bef1a146100e157610083565b36610083576100816101a9565b005b61008b6101a9565b005b34801561009957600080fd5b506100b460048036038101906100af9190610794565b6102c9565b6040516100c191906107da565b60405180910390f35b3480156100d657600080fd5b506100df6102e1565b005b3480156100ed57600080fd5b506100f6610518565b6040516101039190610854565b60405180910390f35b34801561011857600080fd5b5061012161053e565b60405161012e919061087e565b60405180910390f35b61013f6101a9565b005b34801561014d57600080fd5b50610168600480360381019061016391906108c5565b610562565b604051610175919061087e565b60405180910390f35b34801561018a57600080fd5b506101936105a1565b6040516101a091906107da565b60405180910390f35b6802b5e3af16b18800006101e8600260009054906101000a900473ffffffffffffffffffffffffffffffffffffffff16346105ae90919063ffffffff16565b1015610220576040517fbf961a2800000000000000000000000000000000000000000000000000000000815260040160405180910390fd5b6000339080600181540180825580915050600190039060005260206000200160009091909190916101000a81548173ffffffffffffffffffffffffffffffffffffffff021916908373ffffffffffffffffffffffffffffffffffffffff16021790555034600160003373ffffffffffffffffffffffffffffffffffffffff1673ffffffffffffffffffffffffffffffffffffffff16815260200190815260200160002081905550565b60016020528060005260406000206000915090505481565b7f000000000000000000000000000000000000000000000000000000000000000073ffffffffffffffffffffffffffffffffffffffff163373ffffffffffffffffffffffffffffffffffffffff1614610366576040517f82b4290000000000000000000000000000000000000000000000000000000000815260040160405180910390fd5b60005b60008054905081101561041157600080828154811061038b5761038a6108f2565b5b9060005260206000200160009054906101000a900473ffffffffffffffffffffffffffffffffffffffff1690506000600160008373ffffffffffffffffffffffffffffffffffffffff1673ffffffffffffffffffffffffffffffffffffffff1681526020019081526020016000208190555050808061040990610950565b915050610369565b50600067ffffffffffffffff81111561042d5761042c610999565b5b60405190808252806020026020018201604052801561045b5781602001602082028036833780820191505090505b506000908051906020019061047192919061068a565b5060003373ffffffffffffffffffffffffffffffffffffffff1647604051610498906109f9565b60006040518083038185875af1925050503d80600081146104d5576040519150601f19603f3d011682016040523d82523d6000602084013e6104da565b606091505b5050905080610515576040517fbf961a2800000000000000000000000000000000000000000000000000000000815260040160405180910390fd5b50565b600260009054906101000a900473ffffffffffffffffffffffffffffffffffffffff1681565b7f000000000000000000000000000000000000000000000000000000000000000081565b6000818154811061057257600080fd5b906000526020600020016000915054906101000a900473ffffffffffffffffffffffffffffffffffffffff1681565b6802b5e3af16b188000081565b6000806105ba836105ea565b90506000670de0b6b3a764000085836105d39190610a0e565b6105dd9190610a97565b9050809250505092915050565b6000808273ffffffffffffffffffffffffffffffffffffffff1663feaf968c6040518163ffffffff1660e01b815260040160a06040518083038186803b15801561063357600080fd5b505afa158015610647573d6000803e3d6000fd5b505050506040513d601f19601f8201168201806040525081019061066b9190610b55565b5050509150506402540be400816106829190610bd0565b915050919050565b828054828255906000526020600020908101928215610703579160200282015b828111156107025782518260006101000a81548173ffffffffffffffffffffffffffffffffffffffff021916908373ffffffffffffffffffffffffffffffffffffffff160217905550916020019190600101906106aa565b5b5090506107109190610714565b5090565b5b8082111561072d576000816000905550600101610715565b5090565b600080fd5b600073ffffffffffffffffffffffffffffffffffffffff82169050919050565b600061076182610736565b9050919050565b61077181610756565b811461077c57600080fd5b50565b60008135905061078e81610768565b92915050565b6000602082840312156107aa576107a9610731565b5b60006107b88482850161077f565b91505092915050565b6000819050919050565b6107d4816107c1565b82525050565b60006020820190506107ef60008301846107cb565b92915050565b6000819050919050565b600061081a61081561081084610736565b6107f5565b610736565b9050919050565b600061082c826107ff565b9050919050565b600061083e82610821565b9050919050565b61084e81610833565b82525050565b60006020820190506108696000830184610845565b92915050565b61087881610756565b82525050565b6000602082019050610893600083018461086f565b92915050565b6108a2816107c1565b81146108ad57600080fd5b50565b6000813590506108bf81610899565b92915050565b6000602082840312156108db576108da610731565b5b60006108e9848285016108b0565b91505092915050565b7f4e487b7100000000000000000000000000000000000000000000000000000000600052603260045260246000fd5b7f4e487b7100000000000000000000000000000000000000000000000000000000600052601160045260246000fd5b600061095b826107c1565b91507fffffffffffffffffffffffffffffffffffffffffffffffffffffffffffffffff82141561098e5761098d610921565b5b600182019050919050565b7f4e487b7100000000000000000000000000000000000000000000000000000000600052604160045260246000fd5b600081905092915050565b50565b60006109e36000836109c8565b91506109ee826109d3565b600082019050919050565b6000610a04826109d6565b9150819050919050565b6000610a19826107c1565b9150610a24836107c1565b9250817fffffffffffffffffffffffffffffffffffffffffffffffffffffffffffffffff0483118215151615610a5d57610a5c610921565b5b828202905092915050565b7f4e487b7100000000000000000000000000000000000000000000000000000000600052601260045260246000fd5b6000610aa2826107c1565b9150610aad836107c1565b925082610abd57610abc610a68565b5b828204905092915050565b600069ffffffffffffffffffff82169050919050565b610ae781610ac8565b8114610af257600080fd5b50565b600081519050610b0481610ade565b92915050565b6000819050919050565b610b1d81610b0a565b8114610b2857600080fd5b50565b600081519050610b3a81610b14565b92915050565b600081519050610b4f81610899565b92915050565b600080600080600060a08688031215610b7157610b70610731565b5b6000610b7f88828901610af5565b9550506020610b9088828901610b2b565b9450506040610ba188828901610b40565b9350506060610bb288828901610b40565b9250506080610bc388828901610af5565b9150509295509295909350565b6000610bdb82610b0a565b9150610be683610b0a565b9250827f7fffffffffffffffffffffffffffffffffffffffffffffffffffffffffffffff0482116000841360008413161615610c2557610c24610921565b5b817f80000000000000000000000000000000000000000000000000000000000000000583126000841260008413161615610c6257610c61610921565b5b827f80000000000000000000000000000000000000000000000000000000000000000582126000841360008412161615610c9f57610c9e610921565b5b827f7fffffffffffffffffffffffffffffffffffffffffffffffffffffffffffffff0582126000841260008412161615610cdc57610cdb610921565b5b82820290509291505056fea2646970667358221220bc5c01e8837efa5ca618e5e9cc1625bd581bfca6cb7ad5f819cda3b42b3c1e3564736f6c63430008080033",
  "devdoc": {
    "kind": "dev",
    "methods": {},
    "version": 1
  },
  "userdoc": {
    "kind": "user",
    "methods": {},
    "version": 1
  },
  "storageLayout": {
    "storage": [
      {
        "astId": 63,
        "contract": "contracts/FundMe.sol:FundMe",
        "label": "funders",
        "offset": 0,
        "slot": "0",
        "type": "t_array(t_address)dyn_storage"
      },
      {
        "astId": 67,
        "contract": "contracts/FundMe.sol:FundMe",
        "label": "addressToAmount",
        "offset": 0,
        "slot": "1",
        "type": "t_mapping(t_address,t_uint256)"
      },
      {
        "astId": 72,
        "contract": "contracts/FundMe.sol:FundMe",
        "label": "priceFeed",
        "offset": 0,
        "slot": "2",
        "type": "t_contract(AggregatorV3Interface)45"
      }
    ],
    "types": {
      "t_address": {
        "encoding": "inplace",
        "label": "address",
        "numberOfBytes": "20"
      },
      "t_array(t_address)dyn_storage": {
        "base": "t_address",
        "encoding": "dynamic_array",
        "label": "address[]",
        "numberOfBytes": "32"
      },
      "t_contract(AggregatorV3Interface)45": {
        "encoding": "inplace",
        "label": "contract AggregatorV3Interface",
        "numberOfBytes": "20"
      },
      "t_mapping(t_address,t_uint256)": {
        "encoding": "mapping",
        "key": "t_address",
        "label": "mapping(address => uint256)",
        "numberOfBytes": "32",
        "value": "t_uint256"
      },
      "t_uint256": {
        "encoding": "inplace",
        "label": "uint256",
        "numberOfBytes": "32"
      }
    }
  }
}